:020000040800F2
:100000000004002005010008010300086D0200083B
:10001000FD0200084D0100089904000800000000DE
:10002000000000000000000000000000490300087C
:100030005101000800000000030300083504000817
:100040001F0100081F0100081F0100081F01000810
:100050001F0100081F0100081F0100081F01000800
:100060001F0100081F0100081F0100081F010008F0
:100070001F0100081F0100081F0100081F010008E0
:100080001F0100081F0100081F0100081F010008D0
:100090001F0100081F0100081F0100081F010008C0
:1000A0001F0100081F0100081F0100081F010008B0
:1000B0001F0100081F0100081F0100081F010008A0
:1000C0001F0100081F0100081F0100081F01000890
:1000D0001F0100081F0100081F0100081F01000880
:1000E0001F0100081F0100081F010008DFF810D0E1
:1000F00000F01AF800480047BD040008AFF3008084
:10010000000400200648804706480047FEE7FEE757
:10011000FEE7FEE7FEE7FEE7FEE7FEE7FEE7FEE7B7
:1001200039040008ED000008064C074D06E0E068C1
:1001300040F0010394E8070098471034AC42F6D32E
:10014000FFF7D8FF94050008A405000800BFFEE7EC
:1001500070472DE9F04102460025002600200023CB
:100160000024002791F803C00CF00F0591F803C09C
:100170000CF0100CBCF1000F03D091F802C04CEA57
:10018000050591F800C0BCF1000F31D014680020C3
:100190002BE04FF0010C0CFA00F3B1F800C00CEAB0
:1001A00003069E4220D183004FF00F0C0CFA03F798
:1001B000BC4305FA03FC4CEA040491F803C0BCF10B
:1001C000280F06D14FF0010C0CFA00FCC2F814C045
:1001D0000AE091F803C0BCF1480F05D14FF0010CC3
:1001E0000CFA00FCC2F810C0401C0828D1D31460DF
:1001F000B1F800C0BCF1FF0F34DD546800202EE0E0
:1002000000F1080C4FF0010808FA0CF3B1F800C037
:100210000CEA03069E4221D183004FF00F0C0CFA2A
:1002200003F7BC4305FA03FC4CEA040491F803C04D
:10023000BCF1280F05D100F1080C08FA0CF8C2F83F
:10024000148091F803C0BCF1480F07D100F1080CED
:100250004FF0010808FA0CF8C2F81080401C08287A
:10026000CED35460BDE8F0810161704700BFFEE766
:1002700008B5002000900121042000F043F801217E
:10028000042000F03FF80121042000F03BF8022197
:100290001948FFF7E9FF04211748FFF7E5FF082198
:1002A0001548FFF7E1FF10208DF803000220ADF89C
:1002B000000003208DF8020069460F48FFF749FF50
:1002C00010208DF803000420ADF8000003208DF805
:1002D000020069460848FFF73CFF10208DF8030034
:1002E0000820ADF8000003208DF80200694602489E
:1002F000FFF72FFF08BD00000008014000BFFEE728
:100300007047704729B1064A92690243044B9A61CB
:1003100004E0034A92698243014B9A6170470000EE
:100320000010024001B5002001E000BF401C009910
:100330008842FAD308BD01B54FF4FA52009901FB87
:1003400002F0FFF7EFFF08BD704710B500F002F8AC
:1003500010BD00000CB500200190009033480068EB
:1003600040F480303149086000BF3048006800F434
:10037000003000900198401C0190009818B9019835
:10038000B0F5A06FF1D12948006800F4003010B139
:100390000120009001E0002000900098012843D146
:1003A0002348006840F010002149086008460068B2
:1003B00020F0070008600846006840F0020008606E
:1003C0001A4840681949486008464068486008462D
:1003D000406840F4806048600846406820F47C1023
:1003E00048600846406840F4E810486008460068E5
:1003F00040F08070086000BF0C48006800F000709A
:100400000028F9D00948406820F0030007494860F7
:100410000846406840F00200486000BF034840685A
:1004200000F00C000828F9D10CBD000000100240BB
:10043000002002407047000010B51348006840F0EB
:1004400001001149086008464068104908400E49FB
:100450004860084600680E4908400B490860084695
:10046000006820F4802008600846406820F4FE0000
:1004700048604FF41F008860FFF767FF4FF000608F
:100480000449086010BD0000001002400000FFF8A1
:10049000FFFFF6FE08ED00E000BFFEE702E008C83F
:1004A000121F08C1002AFAD170477047002001E0EE
:1004B00001C1121F002AFBD17047000040F6B8347A
:1004C000FFF7D6FE62E00220314908600420091FD0
:1004D0000860082008602046FFF72DFF02202C4905
:1004E000091F08600420091D08600820091F086012
:1004F0002046FFF720FF02202549091F086004203D
:1005000008600820091D08602046FFF714FF02203C
:100510001F49086004200860082008602046FFF793
:100520000AFF02201A49091F0860042008600820F9
:1005300008602046FFF7FFFE0220154908600420EE
:100540000860082008602046FFF7F5FE02201049E9
:10055000091F086004200860082008602046FFF793
:10056000EAFE02200A4908600420086008200860AA
:100570002046FFF7E0FE02200549091F086004201D
:100580000860082008602046FFF7D5FE9BE70000C2
:1005900014080140A4050008000000200004000029
:0405A000AC0400089F
:04000005080000ED02
:00000001FF
