:020000040800F2
:100000000004002005010008F9040008830200082C
:10001000F50400084D0100089106000800000000EA
:100020000000000000000000000000004105000882
:100030005101000800000000FB0400082D06000824
:100040001F0100081F0100081F0100081F01000810
:100050001F0100081F0100081F0100081F01000800
:100060001F0100081F0100081F0100081F010008F0
:100070001F0100081F0100081F0100081F010008E0
:100080001F0100081F0100081F0100081F010008D0
:100090001F0100081F0100081F0100081F010008C0
:1000A0001F0100081F0100081F0100081F010008B0
:1000B0001F0100081F0100081F0100081F010008A0
:1000C0001F0100081F0100081F0100081F01000890
:1000D0001F0100081F0100081F0100081F01000880
:1000E0001F0100081F0100081F010008DFF810D0E1
:1000F00000F01AF800480047B5060008AFF300808A
:10010000000400200648804706480047FEE7FEE757
:10011000FEE7FEE7FEE7FEE7FEE7FEE7FEE7FEE7B7
:1001200031060008ED000008064C074D06E0E068C7
:1001300040F0010394E8070098471034AC42F6D32E
:10014000FFF7D8FF540700086407000800BFFEE768
:1001500070472DE9F04102460025002600200023CB
:100160000024002791F803C00CF00F0591F803C09C
:100170000CF0100CBCF1000F03D091F802C04CEA57
:10018000050591F800C0BCF1000F31D014680020C3
:100190002BE04FF0010C0CFA00F3B1F800C00CEAB0
:1001A00003069E4220D183004FF00F0C0CFA03F798
:1001B000BC4305FA03FC4CEA040491F803C0BCF10B
:1001C000280F06D14FF0010C0CFA00FCC2F814C045
:1001D0000AE091F803C0BCF1480F05D14FF0010CC3
:1001E0000CFA00FCC2F810C0401C0828D1D31460DF
:1001F000B1F800C0BCF1FF0F34DD546800202EE0E0
:1002000000F1080C4FF0010808FA0CF3B1F800C037
:100210000CEA03069E4221D183004FF00F0C0CFA2A
:1002200003F7BC4305FA03FC4CEA040491F803C04D
:10023000BCF1280F05D100F1080C08FA0CF8C2F83F
:10024000148091F803C0BCF1480F07D100F1080CED
:100250004FF0010808FA0CF8C2F81080401C08287A
:10026000CED35460BDE8F0810246002093680B4075
:100270000BB1012000E0002070474161704701612F
:10028000704700BFFEE7000008B500200090012184
:10029000042000F033F901213F48FFF7F0FF04206C
:1002A0008DF803000120ADF8000003208DF8020056
:1002B00069463948FFF74DFF0121102000F01EF973
:1002C0004FF400513548FFF7DAFF04208DF80300A2
:1002D000C002ADF8000003208DF8020069462F48E7
:1002E000FFF737FF0121082000F008F94FF4004123
:1002F0002B48FFF7C4FF28208DF803004FF400407F
:10030000ADF8000003208DF8020069462448FFF78D
:1003100020FF0121082000F0F1F840212048FFF7DC
:10032000AEFF48208DF803004020ADF80000032008
:100330008DF8020069461A48FFF70BFF01210820DB
:1003400000F0DCF880211648FFF799FF48208DF86F
:1003500003008020ADF8000003208DF802006946FC
:100360000F48FFF7F6FE0121082000F0C7F84FF410
:1003700080710B48FFF783FF48208DF803004FF48E
:100380008070ADF8000003208DF802006946044833
:10039000FFF7DFFE08BD000000080140001001402B
:1003A000000C014070B505460E46144631462846FD
:1003B000FFF75AFFA0420ED1142000F0B8F800BF9A
:1003C00031462846FFF750FFA042F9D0142000F034
:1003D000AEF8012070BD0020FCE7000008B5002049
:1003E00000900121042000F089F80121042000F090
:1003F00085F80121042000F081F802213948FFF737
:100400003EFF04213748FFF73AFF08213548FFF740
:1004100036FF10208DF803000220ADF80000032005
:100420008DF8020069462F48FFF793FE10208DF8E3
:1004300003000420ADF8000003208DF80200694697
:100440002848FFF786FE10208DF803000820ADF83D
:10045000000003208DF8020069462248FFF779FE6C
:100460000121082000F04AF820211F48FFF707FF6C
:1004700010208DF803002020ADF8000003208DF837
:10048000020069461848FFF764FE0121082000F0C9
:1004900035F84FF400511448FFF7EFFE10208DF8A7
:1004A00003004002ADF8000003208DF80200694609
:1004B0000D48FFF74EFE0121082000F01FF84FF411
:1004C00080410948FFF7D9FE10208DF80300800213
:1004D000ADF8000003208DF8020069460248FFF7DE
:1004E00038FE08BD00080140000C0140C2684A40C7
:1004F000C260704700BFFEE77047704729B1064AE7
:1005000092690243044B9A6104E0034A9269824370
:10051000014B9A61704700000010024001B50020B5
:1005200001E000BF401C00998842FAD308BD01B524
:100530004FF4FA52009901FB02F0FFF7EFFF08BDFC
:10054000704710B500F002F810BD00000CB5002097
:10055000019000903348006840F4803031490860D1
:1005600000BF3048006800F4003000900198401C43
:100570000190009818B90198B0F5A06FF1D1294801
:10058000006800F4003010B10120009001E000206C
:1005900000900098012843D12348006840F01000E3
:1005A000214908600846006820F0070008600846F6
:1005B000006840F0020008601A4840681949486025
:1005C0000846406848600846406840F480604860DB
:1005D0000846406820F47C1048600846406840F4B3
:1005E000E81048600846006840F08070086000BF6E
:1005F0000C48006800F000700028F9D009484068F5
:1006000020F00300074948600846406840F00200B7
:10061000486000BF0348406800F00C000828F9D18A
:100620000CBD000000100240002002407047000096
:1006300010B51348006840F00100114908600846F1
:100640004068104908400E494860084600680E4955
:1006500008400B4908600846006820F480200860C4
:100660000846406820F4FE0048604FF41F00886090
:10067000FFF767FF4FF000600449086010BD0000FD
:10068000001002400000FFF8FFFFF6FE08ED00E05A
:1006900000BFFEE702E008C8121F08C1002AFAD115
:1006A00070477047002001E001C1121F002AFBD1F2
:1006B00070470000FFF792FEFFF7E6FD42E00122DF
:1006C00011462148FFF76EFE012803D102211E4882
:1006D000FFF70CFF012251031C48FFF763FE0128BE
:1006E00003D104211848FFF701FF0122D103184864
:1006F000FFF758FE012803D108211348FFF7F6FE43
:10070000002240211248FFF74DFE012803D120218D
:100710000F48FFF7EBFE002280210D48FFF742FE55
:10072000012803D141030A48FFF7E0FE00224FF4FD
:1007300080710748FFF736FE012803D18103044882
:10074000FFF7D4FEBBE700000008014000100140A5
:10075000000C0140640700080000002000040000B5
:04076000A4060008E3
:04000005080000ED02
:00000001FF
